{
  "contractName": "RHBChain",
  "abi": [
    {
      "inputs": [],
      "payable": false,
      "stateMutability": "nonpayable",
      "type": "constructor"
    },
    {
      "anonymous": false,
      "inputs": [
        {
          "indexed": false,
          "internalType": "address",
          "name": "requester",
          "type": "address"
        }
      ],
      "name": "ConsortiumMemberRequestVote",
      "type": "event"
    },
    {
      "anonymous": false,
      "inputs": [
        {
          "indexed": false,
          "internalType": "address",
          "name": "requester",
          "type": "address"
        }
      ],
      "name": "FIRequestVote",
      "type": "event"
    },
    {
      "anonymous": false,
      "inputs": [
        {
          "indexed": false,
          "internalType": "address",
          "name": "approvedMember",
          "type": "address"
        }
      ],
      "name": "NewConsortiumMember",
      "type": "event"
    },
    {
      "anonymous": false,
      "inputs": [
        {
          "indexed": false,
          "internalType": "address",
          "name": "approvedFI",
          "type": "address"
        }
      ],
      "name": "NewFI",
      "type": "event"
    },
    {
      "constant": true,
      "inputs": [
        {
          "internalType": "string",
          "name": "icNumber",
          "type": "string"
        }
      ],
      "name": "icLookup",
      "outputs": [
        {
          "internalType": "bool",
          "name": "",
          "type": "bool"
        }
      ],
      "payable": false,
      "stateMutability": "view",
      "type": "function"
    },
    {
      "constant": true,
      "inputs": [],
      "name": "getOwnProfile",
      "outputs": [
        {
          "internalType": "string",
          "name": "",
          "type": "string"
        },
        {
          "internalType": "string",
          "name": "",
          "type": "string"
        },
        {
          "internalType": "string",
          "name": "",
          "type": "string"
        },
        {
          "internalType": "string",
          "name": "",
          "type": "string"
        },
        {
          "internalType": "uint64",
          "name": "",
          "type": "uint64"
        }
      ],
      "payable": false,
      "stateMutability": "view",
      "type": "function"
    },
    {
      "constant": false,
      "inputs": [
        {
          "internalType": "string",
          "name": "name",
          "type": "string"
        },
        {
          "internalType": "string",
          "name": "addr",
          "type": "string"
        },
        {
          "internalType": "string",
          "name": "phone",
          "type": "string"
        },
        {
          "internalType": "string",
          "name": "icNumber",
          "type": "string"
        },
        {
          "internalType": "uint64",
          "name": "dob",
          "type": "uint64"
        }
      ],
      "name": "setOwnProfile",
      "outputs": [],
      "payable": false,
      "stateMutability": "nonpayable",
      "type": "function"
    },
    {
      "constant": false,
      "inputs": [
        {
          "internalType": "address",
          "name": "profile",
          "type": "address"
        }
      ],
      "name": "getCreditReportVariables",
      "outputs": [
        {
          "components": [
            {
              "internalType": "string",
              "name": "name",
              "type": "string"
            },
            {
              "internalType": "string",
              "name": "addr",
              "type": "string"
            },
            {
              "internalType": "string",
              "name": "phone",
              "type": "string"
            },
            {
              "internalType": "string",
              "name": "icNumber",
              "type": "string"
            },
            {
              "internalType": "uint64",
              "name": "dob",
              "type": "uint64"
            },
            {
              "components": [
                {
                  "internalType": "address",
                  "name": "FI",
                  "type": "address"
                },
                {
                  "internalType": "uint256",
                  "name": "dateOpen",
                  "type": "uint256"
                },
                {
                  "internalType": "uint256",
                  "name": "dateClosed",
                  "type": "uint256"
                },
                {
                  "internalType": "uint64",
                  "name": "balance",
                  "type": "uint64"
                },
                {
                  "internalType": "uint64",
                  "name": "maxBalance",
                  "type": "uint64"
                },
                {
                  "internalType": "enum RHBChain.PaymentInterval",
                  "name": "interval",
                  "type": "uint8"
                },
                {
                  "internalType": "enum RHBChain.PaymentType[]",
                  "name": "payments",
                  "type": "uint8[]"
                },
                {
                  "internalType": "string",
                  "name": "terms",
                  "type": "string"
                }
              ],
              "internalType": "struct RHBChain.CreditAccount[]",
              "name": "accounts",
              "type": "tuple[]"
            },
            {
              "components": [
                {
                  "internalType": "uint256",
                  "name": "date",
                  "type": "uint256"
                },
                {
                  "internalType": "address",
                  "name": "inquirer",
                  "type": "address"
                }
              ],
              "internalType": "struct RHBChain.Inquiry[]",
              "name": "inquiries",
              "type": "tuple[]"
            },
            {
              "internalType": "bool",
              "name": "isValid",
              "type": "bool"
            }
          ],
          "internalType": "struct RHBChain.Profile",
          "name": "",
          "type": "tuple"
        }
      ],
      "payable": false,
      "stateMutability": "nonpayable",
      "type": "function"
    },
    {
      "constant": false,
      "inputs": [
        {
          "internalType": "address",
          "name": "profile",
          "type": "address"
        },
        {
          "internalType": "string",
          "name": "terms",
          "type": "string"
        },
        {
          "internalType": "uint64",
          "name": "balance",
          "type": "uint64"
        },
        {
          "internalType": "uint256",
          "name": "paymentInterval",
          "type": "uint256"
        }
      ],
      "name": "openCreditAccount",
      "outputs": [
        {
          "internalType": "uint256",
          "name": "",
          "type": "uint256"
        }
      ],
      "payable": false,
      "stateMutability": "nonpayable",
      "type": "function"
    },
    {
      "constant": false,
      "inputs": [
        {
          "internalType": "address",
          "name": "profile",
          "type": "address"
        },
        {
          "internalType": "uint256",
          "name": "UID",
          "type": "uint256"
        }
      ],
      "name": "closeCreditAccount",
      "outputs": [],
      "payable": false,
      "stateMutability": "nonpayable",
      "type": "function"
    },
    {
      "constant": false,
      "inputs": [
        {
          "internalType": "address",
          "name": "profile",
          "type": "address"
        },
        {
          "internalType": "uint256",
          "name": "UID",
          "type": "uint256"
        },
        {
          "internalType": "uint64",
          "name": "balance",
          "type": "uint64"
        }
      ],
      "name": "updateCreditAccountBal",
      "outputs": [],
      "payable": false,
      "stateMutability": "nonpayable",
      "type": "function"
    },
    {
      "constant": false,
      "inputs": [
        {
          "internalType": "address",
          "name": "profile",
          "type": "address"
        },
        {
          "internalType": "uint256",
          "name": "UID",
          "type": "uint256"
        },
        {
          "internalType": "uint256",
          "name": "payment",
          "type": "uint256"
        }
      ],
      "name": "updateCreditAccountPayment",
      "outputs": [],
      "payable": false,
      "stateMutability": "nonpayable",
      "type": "function"
    },
    {
      "constant": true,
      "inputs": [],
      "name": "getOwnFIProfile",
      "outputs": [
        {
          "internalType": "string",
          "name": "",
          "type": "string"
        },
        {
          "internalType": "string",
          "name": "",
          "type": "string"
        },
        {
          "internalType": "string",
          "name": "",
          "type": "string"
        },
        {
          "internalType": "bool",
          "name": "",
          "type": "bool"
        }
      ],
      "payable": false,
      "stateMutability": "view",
      "type": "function"
    },
    {
      "constant": true,
      "inputs": [
        {
          "internalType": "address",
          "name": "profile",
          "type": "address"
        }
      ],
      "name": "getFIProfile",
      "outputs": [
        {
          "internalType": "string",
          "name": "",
          "type": "string"
        },
        {
          "internalType": "string",
          "name": "",
          "type": "string"
        },
        {
          "internalType": "string",
          "name": "",
          "type": "string"
        },
        {
          "internalType": "bool",
          "name": "",
          "type": "bool"
        }
      ],
      "payable": false,
      "stateMutability": "view",
      "type": "function"
    },
    {
      "constant": false,
      "inputs": [
        {
          "internalType": "string",
          "name": "name",
          "type": "string"
        },
        {
          "internalType": "string",
          "name": "addr",
          "type": "string"
        },
        {
          "internalType": "string",
          "name": "phone",
          "type": "string"
        }
      ],
      "name": "setOwnFIProfile",
      "outputs": [],
      "payable": false,
      "stateMutability": "nonpayable",
      "type": "function"
    },
    {
      "constant": false,
      "inputs": [
        {
          "internalType": "string",
          "name": "name",
          "type": "string"
        },
        {
          "internalType": "string",
          "name": "addr",
          "type": "string"
        },
        {
          "internalType": "string",
          "name": "phone",
          "type": "string"
        }
      ],
      "name": "startFIApplication",
      "outputs": [],
      "payable": false,
      "stateMutability": "nonpayable",
      "type": "function"
    },
    {
      "constant": false,
      "inputs": [
        {
          "internalType": "address",
          "name": "target",
          "type": "address"
        }
      ],
      "name": "voteFIApplication",
      "outputs": [],
      "payable": false,
      "stateMutability": "nonpayable",
      "type": "function"
    },
    {
      "constant": false,
      "inputs": [],
      "name": "startConsortiumApplication",
      "outputs": [],
      "payable": false,
      "stateMutability": "nonpayable",
      "type": "function"
    },
    {
      "constant": false,
      "inputs": [
        {
          "internalType": "address",
          "name": "target",
          "type": "address"
        }
      ],
      "name": "voteConsortiumApplication",
      "outputs": [],
      "payable": false,
      "stateMutability": "nonpayable",
      "type": "function"
    }
  ],
  "bytecode": "0x60806040526001600060046101000a81548163ffffffff021916908363ffffffff16021790555034801561003257600080fd5b506001600360003373ffffffffffffffffffffffffffffffffffffffff1673ffffffffffffffffffffffffffffffffffffffff16815260200190815260200160002060030160006101000a81548160ff0219169083151502179055506001600360003373ffffffffffffffffffffffffffffffffffffffff1673ffffffffffffffffffffffffffffffffffffffff16815260200190815260200160002060030160016101000a81548160ff02191690831515021790555060016000806101000a81548163ffffffff021916908363ffffffff16021790555061375e806101196000396000f3fe608060405234801561001057600080fd5b50600436106100f55760003560e01c80637969e2d211610097578063dd33359e11610066578063dd33359e14610249578063ea18398214610265578063fd1b515814610295578063ff48b7e0146102b7576100f5565b80637969e2d2146101d95780638c5cdc5c146101f5578063bab62dc514610211578063c03cd3b41461022d576100f5565b8063305f7a83116100d3578063305f7a831461016757806332847706146101715780634249a7cb1461018d57806369ec4974146101bd576100f5565b80630d505773146100fa57806323f2a02d1461011657806326faa73c14610146575b600080fd5b610114600480360361010f9190810190612c64565b6102ea565b005b610130600480360361012b9190810190612b35565b6103e0565b60405161013d9190613409565b60405180910390f35b61014e610bf3565b60405161015e9493929190613340565b60405180910390f35b61016f610eab565b005b61018b60048036036101869190810190612cf4565b610fc7565b005b6101a760048036036101a29190810190612cb3565b61107d565b6040516101b49190613325565b60405180910390f35b6101d760048036036101d29190810190612cf4565b6110b2565b005b6101f360048036036101ee9190810190612d8b565b6111bc565b005b61020f600480360361020a9190810190612c15565b611326565b005b61022b60048036036102269190810190612b35565b61144e565b005b61024760048036036102429190810190612b35565b611751565b005b610263600480360361025e9190810190612bd9565b6119f5565b005b61027f600480360361027a9190810190612b5e565b611af5565b60405161028c919061342b565b60405180910390f35b61029d611da0565b6040516102ae95949392919061339a565b60405180910390f35b6102d160048036036102cc9190810190612b35565b612460565b6040516102e19493929190613340565b60405180910390f35b60011515600360003373ffffffffffffffffffffffffffffffffffffffff1673ffffffffffffffffffffffffffffffffffffffff16815260200190815260200160002060030160009054906101000a900460ff1615151461034a57600080fd5b6000600160008573ffffffffffffffffffffffffffffffffffffffff1673ffffffffffffffffffffffffffffffffffffffff1681526020019081526020016000209050600081600501848154811061039e57fe5b90600052602060002090600602019050828160030160006101000a81548167ffffffffffffffff021916908367ffffffffffffffff1602179055505050505050565b6103e8612719565b8160011515600360003373ffffffffffffffffffffffffffffffffffffffff1673ffffffffffffffffffffffffffffffffffffffff16815260200190815260200160002060030160009054906101000a900460ff161515148061047657503373ffffffffffffffffffffffffffffffffffffffff168173ffffffffffffffffffffffffffffffffffffffff16145b61047f57600080fd5b6000600160008573ffffffffffffffffffffffffffffffffffffffff1673ffffffffffffffffffffffffffffffffffffffff1681526020019081526020016000209050600115158160070160009054906101000a900460ff161515146104e457600080fd5b8373ffffffffffffffffffffffffffffffffffffffff163373ffffffffffffffffffffffffffffffffffffffff16146105c6578060060160405180604001604052804281526020013373ffffffffffffffffffffffffffffffffffffffff16815250908060018154018082558091505090600182039060005260206000209060020201600090919290919091506000820151816000015560208201518160010160006101000a81548173ffffffffffffffffffffffffffffffffffffffff021916908373ffffffffffffffffffffffffffffffffffffffff1602179055505050505b8060405180610100016040529081600082018054600181600116156101000203166002900480601f01602080910402602001604051908101604052809291908181526020018280546001816001161561010002031660029004801561066c5780601f106106415761010080835404028352916020019161066c565b820191906000526020600020905b81548152906001019060200180831161064f57829003601f168201915b50505050508152602001600182018054600181600116156101000203166002900480601f01602080910402602001604051908101604052809291908181526020018280546001816001161561010002031660029004801561070e5780601f106106e35761010080835404028352916020019161070e565b820191906000526020600020905b8154815290600101906020018083116106f157829003601f168201915b50505050508152602001600282018054600181600116156101000203166002900480601f0160208091040260200160405190810160405280929190818152602001828054600181600116156101000203166002900480156107b05780601f10610785576101008083540402835291602001916107b0565b820191906000526020600020905b81548152906001019060200180831161079357829003601f168201915b50505050508152602001600382018054600181600116156101000203166002900480601f0160208091040260200160405190810160405280929190818152602001828054600181600116156101000203166002900480156108525780601f1061082757610100808354040283529160200191610852565b820191906000526020600020905b81548152906001019060200180831161083557829003601f168201915b505050505081526020016004820160009054906101000a900467ffffffffffffffff1667ffffffffffffffff1667ffffffffffffffff16815260200160058201805480602002602001604051908101604052809291908181526020016000905b82821015610b085783829060005260206000209060060201604051806101000160405290816000820160009054906101000a900473ffffffffffffffffffffffffffffffffffffffff1673ffffffffffffffffffffffffffffffffffffffff1673ffffffffffffffffffffffffffffffffffffffff16815260200160018201548152602001600282015481526020016003820160009054906101000a900467ffffffffffffffff1667ffffffffffffffff1667ffffffffffffffff1681526020016003820160089054906101000a900467ffffffffffffffff1667ffffffffffffffff1667ffffffffffffffff1681526020016003820160109054906101000a900460ff1660018111156109c257fe5b60018111156109cd57fe5b815260200160048201805480602002602001604051908101604052809291908181526020018280548015610a4e57602002820191906000526020600020906000905b82829054906101000a900460ff166002811115610a2857fe5b81526020019060010190602082600001049283019260010382029150808411610a0f5790505b50505050508152602001600582018054600181600116156101000203166002900480601f016020809104026020016040519081016040528092919081815260200182805460018160011615610100020316600290048015610af05780601f10610ac557610100808354040283529160200191610af0565b820191906000526020600020905b815481529060010190602001808311610ad357829003601f168201915b505050505081525050815260200190600101906108b2565b50505050815260200160068201805480602002602001604051908101604052809291908181526020016000905b82821015610bc75783829060005260206000209060020201604051806040016040529081600082015481526020016001820160009054906101000a900473ffffffffffffffffffffffffffffffffffffffff1673ffffffffffffffffffffffffffffffffffffffff1673ffffffffffffffffffffffffffffffffffffffff168152505081526020019060010190610b35565b5050505081526020016007820160009054906101000a900460ff16151515158152505092505050919050565b60608060606000610c0261276a565b600360003373ffffffffffffffffffffffffffffffffffffffff1673ffffffffffffffffffffffffffffffffffffffff1681526020019081526020016000206040518060a0016040529081600082018054600181600116156101000203166002900480601f016020809104026020016040519081016040528092919081815260200182805460018160011615610100020316600290048015610ce55780601f10610cba57610100808354040283529160200191610ce5565b820191906000526020600020905b815481529060010190602001808311610cc857829003601f168201915b50505050508152602001600182018054600181600116156101000203166002900480601f016020809104026020016040519081016040528092919081815260200182805460018160011615610100020316600290048015610d875780601f10610d5c57610100808354040283529160200191610d87565b820191906000526020600020905b815481529060010190602001808311610d6a57829003601f168201915b50505050508152602001600282018054600181600116156101000203166002900480601f016020809104026020016040519081016040528092919081815260200182805460018160011615610100020316600290048015610e295780601f10610dfe57610100808354040283529160200191610e29565b820191906000526020600020905b815481529060010190602001808311610e0c57829003601f168201915b505050505081526020016003820160009054906101000a900460ff161515151581526020016003820160019054906101000a900460ff1615151515815250509050600115158160600151151514610e7f57600080fd5b806000015181602001518260400151836080015183935082925081915094509450945094505090919293565b60011515600360003373ffffffffffffffffffffffffffffffffffffffff1673ffffffffffffffffffffffffffffffffffffffff16815260200190815260200160002060030160009054906101000a900460ff16151514610f0b57600080fd5b6000600560003373ffffffffffffffffffffffffffffffffffffffff1673ffffffffffffffffffffffffffffffffffffffff1681526020019081526020016000209050600015158160020160009054906101000a900460ff16151514610f7057600080fd5b60018160020160006101000a81548160ff0219169083151502179055507f274f87f3b7a240da7b161c82f03ce45372741e1ae0974304555c60245c88b63633604051610fbc919061330a565b60405180910390a150565b6000600360003373ffffffffffffffffffffffffffffffffffffffff1673ffffffffffffffffffffffffffffffffffffffff1681526020019081526020016000209050600115158160030160009054906101000a900460ff1615151461102c57600080fd5b8381600001908051906020019061104492919061279d565b508281600101908051906020019061105d92919061279d565b508181600201908051906020019061107692919061279d565b5050505050565b600060028260405161108f91906132d8565b908152602001604051809103902060009054906101000a900460ff169050919050565b6000600460003373ffffffffffffffffffffffffffffffffffffffff1673ffffffffffffffffffffffffffffffffffffffff1681526020019081526020016000209050600015158160050160009054906101000a900460ff1615151461111757600080fd5b60018160050160006101000a81548160ff0219169083151502179055508381600001908051906020019061114c92919061279d565b508281600101908051906020019061116592919061279d565b508181600201908051906020019061117e92919061279d565b507f49036ca524f2b332fa5b20d2c857108da6cc4eda9f2bc57c71d55930587aea8a336040516111ae919061330a565b60405180910390a150505050565b600015156002836040516111d091906132d8565b908152602001604051809103902060009054906101000a900460ff161515146111f857600080fd5b6000600160003373ffffffffffffffffffffffffffffffffffffffff1673ffffffffffffffffffffffffffffffffffffffff1681526020019081526020016000209050600160028460405161124d91906132d8565b908152602001604051809103902060006101000a81548160ff02191690831515021790555060018160070160006101000a81548160ff021916908315150217905550858160000190805190602001906112a792919061279d565b50848160010190805190602001906112c092919061279d565b50838160020190805190602001906112d992919061279d565b50828160030190805190602001906112f292919061279d565b50818160040160006101000a81548167ffffffffffffffff021916908367ffffffffffffffff160217905550505050505050565b60011515600360003373ffffffffffffffffffffffffffffffffffffffff1673ffffffffffffffffffffffffffffffffffffffff16815260200190815260200160002060030160009054906101000a900460ff1615151461138657600080fd5b6000600160008573ffffffffffffffffffffffffffffffffffffffff1673ffffffffffffffffffffffffffffffffffffffff168152602001908152602001600020905060008160050184815481106113da57fe5b90600052602060002090600602019050806004018360028111156113fa57fe5b908060018154018082558091505090600182039060005260206000209060209182820401919006909192909190916101000a81548160ff0219169083600281111561144157fe5b0217905550505050505050565b60011515600360003373ffffffffffffffffffffffffffffffffffffffff1673ffffffffffffffffffffffffffffffffffffffff16815260200190815260200160002060030160009054906101000a900460ff161515146114ae57600080fd5b6000600460008373ffffffffffffffffffffffffffffffffffffffff1673ffffffffffffffffffffffffffffffffffffffff1681526020019081526020016000209050600115158160050160009054906101000a900460ff1615151461151357600080fd5b600015158160030160003373ffffffffffffffffffffffffffffffffffffffff1673ffffffffffffffffffffffffffffffffffffffff16815260200190815260200160002060009054906101000a900460ff1615151461157257600080fd5b60018160030160003373ffffffffffffffffffffffffffffffffffffffff1673ffffffffffffffffffffffffffffffffffffffff16815260200190815260200160002060006101000a81548160ff02191690831515021790555060018160040160008282540192505081905550600060049054906101000a900463ffffffff1663ffffffff1681600401541061174d5760008160050160006101000a81548160ff0219169083151502179055506000600360008473ffffffffffffffffffffffffffffffffffffffff1673ffffffffffffffffffffffffffffffffffffffff16815260200190815260200160002090508160000181600001908054600181600116156101000203166002900461168992919061281d565b50816001018160010190805460018160011615610100020316600290046116b192919061281d565b50816002018160020190805460018160011615610100020316600290046116d992919061281d565b5060018160030160006101000a81548160ff02191690831515021790555060008160030160016101000a81548160ff0219169083151502179055507f2cc30d8122eba04f27e36a67004b48cd1216fdd7a1e9e5ca7a502899a221b6c98360405161174391906132ef565b60405180910390a1505b5050565b60011515600360003373ffffffffffffffffffffffffffffffffffffffff1673ffffffffffffffffffffffffffffffffffffffff16815260200190815260200160002060030160019054906101000a900460ff161515146117b157600080fd5b6000600560008373ffffffffffffffffffffffffffffffffffffffff1673ffffffffffffffffffffffffffffffffffffffff1681526020019081526020016000209050600115158160020160009054906101000a900460ff1615151461181657600080fd5b600015158160000160003373ffffffffffffffffffffffffffffffffffffffff1673ffffffffffffffffffffffffffffffffffffffff16815260200190815260200160002060009054906101000a900460ff1615151461187557600080fd5b60018160000160003373ffffffffffffffffffffffffffffffffffffffff1673ffffffffffffffffffffffffffffffffffffffff16815260200190815260200160002060006101000a81548160ff021916908315150217905550600181600101600082825401925050819055506000809054906101000a900463ffffffff1663ffffffff16816001015414156119f15760008160020160006101000a81548160ff0219169083151502179055506000600360008473ffffffffffffffffffffffffffffffffffffffff1673ffffffffffffffffffffffffffffffffffffffff168152602001908152602001600020905060018160030160016101000a81548160ff02191690831515021790555060016000808282829054906101000a900463ffffffff160192506101000a81548163ffffffff021916908363ffffffff1602179055507f96ea63069d6e8816e9dc0a2b452cea2e5af94984642c5350860d788f8389c2ae836040516119e791906132ef565b60405180910390a1505b5050565b60011515600360003373ffffffffffffffffffffffffffffffffffffffff1673ffffffffffffffffffffffffffffffffffffffff16815260200190815260200160002060030160009054906101000a900460ff16151514611a5557600080fd5b6000600160008473ffffffffffffffffffffffffffffffffffffffff1673ffffffffffffffffffffffffffffffffffffffff16815260200190815260200160002090506000816005018381548110611aa957fe5b90600052602060002090600602016002015414611ac557600080fd5b6000816005018381548110611ad657fe5b9060005260206000209060060201905042816002018190555050505050565b600060011515600360003373ffffffffffffffffffffffffffffffffffffffff1673ffffffffffffffffffffffffffffffffffffffff16815260200190815260200160002060030160009054906101000a900460ff16151514611b5757600080fd5b611b5f6128a4565b33816000019073ffffffffffffffffffffffffffffffffffffffff16908173ffffffffffffffffffffffffffffffffffffffff16815250504281602001818152505083816060019067ffffffffffffffff16908167ffffffffffffffff1681525050826001811115611bcd57fe5b8160a001906001811115611bdd57fe5b90816001811115611bea57fe5b81525050848160e001819052506000600160008873ffffffffffffffffffffffffffffffffffffffff1673ffffffffffffffffffffffffffffffffffffffff168152602001908152602001600020905080600501829080600181540180825580915050906001820390600052602060002090600602016000909192909190915060008201518160000160006101000a81548173ffffffffffffffffffffffffffffffffffffffff021916908373ffffffffffffffffffffffffffffffffffffffff160217905550602082015181600101556040820151816002015560608201518160030160006101000a81548167ffffffffffffffff021916908367ffffffffffffffff16021790555060808201518160030160086101000a81548167ffffffffffffffff021916908367ffffffffffffffff16021790555060a08201518160030160106101000a81548160ff02191690836001811115611d4757fe5b021790555060c0820151816004019080519060200190611d6892919061291e565b5060e0820151816005019080519060200190611d859291906129cd565b50505050600181600501805490500392505050949350505050565b6060806060806000611db0612719565b600160003373ffffffffffffffffffffffffffffffffffffffff1673ffffffffffffffffffffffffffffffffffffffff16815260200190815260200160002060405180610100016040529081600082018054600181600116156101000203166002900480601f016020809104026020016040519081016040528092919081815260200182805460018160011615610100020316600290048015611e945780601f10611e6957610100808354040283529160200191611e94565b820191906000526020600020905b815481529060010190602001808311611e7757829003601f168201915b50505050508152602001600182018054600181600116156101000203166002900480601f016020809104026020016040519081016040528092919081815260200182805460018160011615610100020316600290048015611f365780601f10611f0b57610100808354040283529160200191611f36565b820191906000526020600020905b815481529060010190602001808311611f1957829003601f168201915b50505050508152602001600282018054600181600116156101000203166002900480601f016020809104026020016040519081016040528092919081815260200182805460018160011615610100020316600290048015611fd85780601f10611fad57610100808354040283529160200191611fd8565b820191906000526020600020905b815481529060010190602001808311611fbb57829003601f168201915b50505050508152602001600382018054600181600116156101000203166002900480601f01602080910402602001604051908101604052809291908181526020018280546001816001161561010002031660029004801561207a5780601f1061204f5761010080835404028352916020019161207a565b820191906000526020600020905b81548152906001019060200180831161205d57829003601f168201915b505050505081526020016004820160009054906101000a900467ffffffffffffffff1667ffffffffffffffff1667ffffffffffffffff16815260200160058201805480602002602001604051908101604052809291908181526020016000905b828210156123305783829060005260206000209060060201604051806101000160405290816000820160009054906101000a900473ffffffffffffffffffffffffffffffffffffffff1673ffffffffffffffffffffffffffffffffffffffff1673ffffffffffffffffffffffffffffffffffffffff16815260200160018201548152602001600282015481526020016003820160009054906101000a900467ffffffffffffffff1667ffffffffffffffff1667ffffffffffffffff1681526020016003820160089054906101000a900467ffffffffffffffff1667ffffffffffffffff1667ffffffffffffffff1681526020016003820160109054906101000a900460ff1660018111156121ea57fe5b60018111156121f557fe5b81526020016004820180548060200260200160405190810160405280929190818152602001828054801561227657602002820191906000526020600020906000905b82829054906101000a900460ff16600281111561225057fe5b815260200190600101906020826000010492830192600103820291508084116122375790505b50505050508152602001600582018054600181600116156101000203166002900480601f0160208091040260200160405190810160405280929190818152602001828054600181600116156101000203166002900480156123185780601f106122ed57610100808354040283529160200191612318565b820191906000526020600020905b8154815290600101906020018083116122fb57829003601f168201915b505050505081525050815260200190600101906120da565b50505050815260200160068201805480602002602001604051908101604052809291908181526020016000905b828210156123ef5783829060005260206000209060020201604051806040016040529081600082015481526020016001820160009054906101000a900473ffffffffffffffffffffffffffffffffffffffff1673ffffffffffffffffffffffffffffffffffffffff1673ffffffffffffffffffffffffffffffffffffffff16815250508152602001906001019061235d565b5050505081526020016007820160009054906101000a900460ff1615151515815250509050600115158160e0015115151461242957600080fd5b8060000151816020015182604001518360600151846080015184945083935082925081915095509550955095509550509091929394565b6060806060600061246f61276a565b600360008773ffffffffffffffffffffffffffffffffffffffff1673ffffffffffffffffffffffffffffffffffffffff1681526020019081526020016000206040518060a0016040529081600082018054600181600116156101000203166002900480601f0160208091040260200160405190810160405280929190818152602001828054600181600116156101000203166002900480156125525780601f1061252757610100808354040283529160200191612552565b820191906000526020600020905b81548152906001019060200180831161253557829003601f168201915b50505050508152602001600182018054600181600116156101000203166002900480601f0160208091040260200160405190810160405280929190818152602001828054600181600116156101000203166002900480156125f45780601f106125c9576101008083540402835291602001916125f4565b820191906000526020600020905b8154815290600101906020018083116125d757829003601f168201915b50505050508152602001600282018054600181600116156101000203166002900480601f0160208091040260200160405190810160405280929190818152602001828054600181600116156101000203166002900480156126965780601f1061266b57610100808354040283529160200191612696565b820191906000526020600020905b81548152906001019060200180831161267957829003601f168201915b505050505081526020016003820160009054906101000a900460ff161515151581526020016003820160019054906101000a900460ff16151515158152505090506001151581606001511515146126ec57600080fd5b80600001518160200151826040015183608001518393508292508191509450945094509450509193509193565b60405180610100016040528060608152602001606081526020016060815260200160608152602001600067ffffffffffffffff16815260200160608152602001606081526020016000151581525090565b6040518060a001604052806060815260200160608152602001606081526020016000151581526020016000151581525090565b828054600181600116156101000203166002900490600052602060002090601f016020900481019282601f106127de57805160ff191683800117855561280c565b8280016001018555821561280c579182015b8281111561280b5782518255916020019190600101906127f0565b5b5090506128199190612a4d565b5090565b828054600181600116156101000203166002900490600052602060002090601f016020900481019282601f106128565780548555612893565b8280016001018555821561289357600052602060002091601f016020900482015b82811115612892578254825591600101919060010190612877565b5b5090506128a09190612a4d565b5090565b604051806101000160405280600073ffffffffffffffffffffffffffffffffffffffff1681526020016000815260200160008152602001600067ffffffffffffffff168152602001600067ffffffffffffffff1681526020016000600181111561290a57fe5b815260200160608152602001606081525090565b82805482825590600052602060002090601f016020900481019282156129bc5791602002820160005b8382111561298d57835183826101000a81548160ff0219169083600281111561296c57fe5b02179055509260200192600101602081600001049283019260010302612947565b80156129ba5782816101000a81549060ff021916905560010160208160000104928301926001030261298d565b505b5090506129c99190612a72565b5090565b828054600181600116156101000203166002900490600052602060002090601f016020900481019282601f10612a0e57805160ff1916838001178555612a3c565b82800160010185558215612a3c579182015b82811115612a3b578251825591602001919060010190612a20565b5b509050612a499190612a4d565b5090565b612a6f91905b80821115612a6b576000816000905550600101612a53565b5090565b90565b612a9f91905b80821115612a9b57600081816101000a81549060ff021916905550600101612a78565b5090565b90565b600081359050612ab1816136d6565b92915050565b600082601f830112612ac857600080fd5b8135612adb612ad682613473565b613446565b91508082526020830160208301858383011115612af757600080fd5b612b02838284613669565b50505092915050565b600081359050612b1a816136ed565b92915050565b600081359050612b2f81613704565b92915050565b600060208284031215612b4757600080fd5b6000612b5584828501612aa2565b91505092915050565b60008060008060808587031215612b7457600080fd5b6000612b8287828801612aa2565b945050602085013567ffffffffffffffff811115612b9f57600080fd5b612bab87828801612ab7565b9350506040612bbc87828801612b20565b9250506060612bcd87828801612b0b565b91505092959194509250565b60008060408385031215612bec57600080fd5b6000612bfa85828601612aa2565b9250506020612c0b85828601612b0b565b9150509250929050565b600080600060608486031215612c2a57600080fd5b6000612c3886828701612aa2565b9350506020612c4986828701612b0b565b9250506040612c5a86828701612b0b565b9150509250925092565b600080600060608486031215612c7957600080fd5b6000612c8786828701612aa2565b9350506020612c9886828701612b0b565b9250506040612ca986828701612b20565b9150509250925092565b600060208284031215612cc557600080fd5b600082013567ffffffffffffffff811115612cdf57600080fd5b612ceb84828501612ab7565b91505092915050565b600080600060608486031215612d0957600080fd5b600084013567ffffffffffffffff811115612d2357600080fd5b612d2f86828701612ab7565b935050602084013567ffffffffffffffff811115612d4c57600080fd5b612d5886828701612ab7565b925050604084013567ffffffffffffffff811115612d7557600080fd5b612d8186828701612ab7565b9150509250925092565b600080600080600060a08688031215612da357600080fd5b600086013567ffffffffffffffff811115612dbd57600080fd5b612dc988828901612ab7565b955050602086013567ffffffffffffffff811115612de657600080fd5b612df288828901612ab7565b945050604086013567ffffffffffffffff811115612e0f57600080fd5b612e1b88828901612ab7565b935050606086013567ffffffffffffffff811115612e3857600080fd5b612e4488828901612ab7565b9250506080612e5588828901612b20565b9150509295509295909350565b6000612e6e8383613031565b60208301905092915050565b6000612e8683836130e3565b905092915050565b6000612e9a838361319a565b60408301905092915050565b612eaf8161360f565b82525050565b612ebe8161358d565b82525050565b612ecd8161358d565b82525050565b6000612ede826134cf565b612ee8818561354f565b9350612ef38361349f565b8060005b83811015612f24578151612f0b8882612e62565b9750612f1683613506565b925050600181019050612ef7565b5085935050505092915050565b6000612f3c826134da565b612f46818561352d565b935083602082028501612f58856134af565b8060005b85811015612f945784840389528151612f758582612e7a565b9450612f8083613513565b925060208a01995050600181019050612f5c565b50829750879550505050505092915050565b6000612fb1826134e5565b612fbb818561353e565b9350612fc6836134bf565b8060005b83811015612ff7578151612fde8882612e8e565b9750612fe983613520565b925050600181019050612fca565b5085935050505092915050565b61300d8161359f565b82525050565b61301c8161359f565b82525050565b61302b81613621565b82525050565b61303a81613633565b82525050565b600061304b826134fb565b6130558185613571565b9350613065818560208601613678565b61306e816136ab565b840191505092915050565b6000613084826134fb565b61308e8185613582565b935061309e818560208601613678565b80840191505092915050565b60006130b5826134f0565b6130bf8185613560565b93506130cf818560208601613678565b6130d8816136ab565b840191505092915050565b6000610100830160008301516130fc6000860182612eb5565b50602083015161310f602086018261329c565b506040830151613122604086018261329c565b50606083015161313560608601826132ba565b50608083015161314860808601826132ba565b5060a083015161315b60a0860182613022565b5060c083015184820360c08601526131738282612ed3565b91505060e083015184820360e086015261318d82826130aa565b9150508091505092915050565b6040820160008201516131b0600085018261329c565b5060208201516131c36020850182612eb5565b50505050565b60006101008301600083015184820360008601526131e782826130aa565b9150506020830151848203602086015261320182826130aa565b9150506040830151848203604086015261321b82826130aa565b9150506060830151848203606086015261323582826130aa565b915050608083015161324a60808601826132ba565b5060a083015184820360a08601526132628282612f31565b91505060c083015184820360c086015261327c8282612fa6565b91505060e083015161329160e0860182613004565b508091505092915050565b6132a5816135f1565b82525050565b6132b4816135f1565b82525050565b6132c3816135fb565b82525050565b6132d2816135fb565b82525050565b60006132e48284613079565b915081905092915050565b60006020820190506133046000830184612ec4565b92915050565b600060208201905061331f6000830184612ea6565b92915050565b600060208201905061333a6000830184613013565b92915050565b6000608082019050818103600083015261335a8187613040565b9050818103602083015261336e8186613040565b905081810360408301526133828185613040565b90506133916060830184613013565b95945050505050565b600060a08201905081810360008301526133b48188613040565b905081810360208301526133c88187613040565b905081810360408301526133dc8186613040565b905081810360608301526133f08185613040565b90506133ff60808301846132c9565b9695505050505050565b6000602082019050818103600083015261342381846131c9565b905092915050565b600060208201905061344060008301846132ab565b92915050565b6000604051905081810181811067ffffffffffffffff8211171561346957600080fd5b8060405250919050565b600067ffffffffffffffff82111561348a57600080fd5b601f19601f8301169050602081019050919050565b6000819050602082019050919050565b6000819050602082019050919050565b6000819050602082019050919050565b600081519050919050565b600081519050919050565b600081519050919050565b600081519050919050565b600081519050919050565b6000602082019050919050565b6000602082019050919050565b6000602082019050919050565b600082825260208201905092915050565b600082825260208201905092915050565b600082825260208201905092915050565b600082825260208201905092915050565b600082825260208201905092915050565b600081905092915050565b6000613598826135d1565b9050919050565b60008115159050919050565b60008190506135b9826136bc565b919050565b60008190506135cc826136c9565b919050565b600073ffffffffffffffffffffffffffffffffffffffff82169050919050565b6000819050919050565b600067ffffffffffffffff82169050919050565b600061361a82613645565b9050919050565b600061362c826135ab565b9050919050565b600061363e826135be565b9050919050565b600061365082613657565b9050919050565b6000613662826135d1565b9050919050565b82818337600083830152505050565b60005b8381101561369657808201518184015260208101905061367b565b838111156136a5576000848401525b50505050565b6000601f19601f8301169050919050565b600281106136c657fe5b50565b600381106136d357fe5b50565b6136df8161358d565b81146136ea57600080fd5b50565b6136f6816135f1565b811461370157600080fd5b50565b61370d816135fb565b811461371857600080fd5b5056fea365627a7a7231582023083861ea2502e52ddbfeaa8bc70cd0afc8225f7f40de6e5a8a46937f67b2266c6578706572696d656e74616cf564736f6c63430005100040",
  "source": "pragma solidity >=0.4.21;\n\npragma experimental ABIEncoderV2;\n\ncontract RHBChain {\n\tuint32 private consortiumAccs;\n\tuint32 private FIVotingThreshold = 1;\n\n    enum PaymentInterval {\n        MONTHLY,\n        YEARLY\n    }\n    enum PaymentType {\n        ON_TIME,\n        LATE,\n        MISSED\n    }\n\tstruct CreditAccount {\n        address FI;\n\t\tuint256 dateOpen; // date of account opening, in UNIX epoch time\n\t\tuint256 dateClosed; // date of account closing, in UNIX epoch time\n\t\tuint64 balance; // balance of account\n\t\tuint64 maxBalance; // \n        PaymentInterval interval;\n        PaymentType[] payments;\n\t\tstring terms;\n\t}\n\tstruct Inquiry {\n\t\tuint256 date; // date of request\n\t\taddress inquirer;\n\t}\n    struct Profile {\n        string name;\n\t\tstring addr;\n\t\tstring phone;\n\t\tstring icNumber;\n\t\tuint64 dob; // date of birth, in UNIX epoch time\n        \n\t\tCreditAccount[] accounts;\n\t\tInquiry[] inquiries;\n\t\tbool isValid;\n    }\n\tstruct FinancialInstitution {\n\t\tstring name;\n\t\tstring addr;\n\t\tstring phone;\n\t\tbool isValid;\n\t\tbool isConsortium;\n\t}\n\tstruct FIRequest {\n        string name;\n        string addr;\n        string phone;\n\t\tmapping(address => bool) approvers;\n        uint approvals;\n\t\tbool isValid;\n\t}\n\tstruct ConsortiumRequest {\n\t\tmapping(address => bool) approvers;\n        uint approvals;\n\t\tbool isValid;\n\t}\n\n\tmapping(address => Profile) profiles;\n    mapping(string => bool) icLookupTbl;\n\n\tmapping(address => FinancialInstitution) financialInstitutions;\n\tmapping(address => FIRequest) FIRequests;\n\n\tmapping(address => ConsortiumRequest) consortiumRequests;\n\n\tevent FIRequestVote (\n\t\taddress requester\n\t);\n\tevent NewFI (\n\t\taddress approvedFI\n\t);\n\tevent ConsortiumMemberRequestVote (\n\t\taddress requester\n\t);\n\tevent NewConsortiumMember (\n\t\taddress approvedMember\n\t);\n\n    modifier isFinancialInstitution () {\n        require(financialInstitutions[msg.sender].isValid == true);\n        _;\n    }\n\tmodifier isFinancialInstitutionOrSelf(address profile) {\n\t\trequire(financialInstitutions[msg.sender].isValid == true || profile == msg.sender);\n\t\t_;\n\t}\n\tmodifier isConsortium() {\n\t\trequire(financialInstitutions[msg.sender].isConsortium == true);\n\t\t_;\n\t}\n\n\tconstructor() public {\n\t\tfinancialInstitutions[msg.sender].isValid = true;\n\t\tfinancialInstitutions[msg.sender].isConsortium = true;\n\t\tconsortiumAccs = 1;\n\t}\n\n    function icLookup(string memory icNumber) public view returns (bool) {\n        return icLookupTbl[icNumber];\n    }\n\n\tfunction getOwnProfile() public view returns (string memory, string memory, string memory, string memory, uint64) {\n\t\tProfile memory target = profiles[msg.sender];\n\t\trequire(target.isValid == true);\n\n\t\treturn (target.name, target.addr, target.phone, target.icNumber, target.dob);\n\t}\n\n\tfunction setOwnProfile(string memory name, string memory addr, string memory phone, string memory icNumber, uint64 dob) public {\n        require(icLookupTbl[icNumber] == false);\n\t\tProfile storage target = profiles[msg.sender];\n        icLookupTbl[icNumber] = true;\n\t\ttarget.isValid = true;\n\t\ttarget.name = name;\n\t\ttarget.addr = addr;\n\t\ttarget.phone = phone;\n\t\ttarget.icNumber = icNumber;\n\t\ttarget.dob = dob;\n\t}\n\n    function getCreditReportVariables(address profile) public isFinancialInstitutionOrSelf(profile) returns (Profile memory)  {\n        Profile storage target = profiles[profile];\n        require(target.isValid == true);\n        if (msg.sender != profile) {\n            target.inquiries.push(Inquiry(block.timestamp, msg.sender));\n        }\n        return target;\n    }\n\n    function openCreditAccount(address profile, string memory terms, uint64 balance, uint paymentInterval) public isFinancialInstitution returns (uint)  {\n        CreditAccount memory newCA;\n        newCA.FI = msg.sender;\n        newCA.dateOpen = block.timestamp;\n        newCA.balance = balance;\n        newCA.interval = PaymentInterval(paymentInterval);\n        newCA.terms = terms;\n\n        Profile storage target = profiles[profile];\n        target.accounts.push(newCA);\n\n        return target.accounts.length - 1;\n    }\n    function closeCreditAccount(address profile, uint UID) public isFinancialInstitution {\n        Profile storage target = profiles[profile];\n        require(target.accounts[UID].dateClosed == 0);\n        CreditAccount storage CA = target.accounts[UID];\n\n        CA.dateClosed = block.timestamp;\n    }\n    function updateCreditAccountBal(address profile, uint UID, uint64 balance) public isFinancialInstitution {\n        Profile storage target = profiles[profile];\n        CreditAccount storage CA = target.accounts[UID];\n\n        CA.balance = balance;\n    }\n    function updateCreditAccountPayment(address profile, uint UID, uint payment) public isFinancialInstitution {\n        Profile storage target = profiles[profile];\n        CreditAccount storage CA = target.accounts[UID];\n\n        CA.payments.push(PaymentType(payment));\n    }\n\n\tfunction getOwnFIProfile() public view returns (string memory, string memory, string memory, bool) {\n        FinancialInstitution memory target = financialInstitutions[msg.sender];\n        require(target.isValid == true);\n\n        return (target.name, target.addr, target.phone, target.isConsortium);\n    }\n\n    function getFIProfile(address profile) public view returns (string memory, string memory, string memory, bool) {\n        FinancialInstitution memory target = financialInstitutions[profile];\n        require(target.isValid == true);\n\n        return (target.name, target.addr, target.phone, target.isConsortium);\n    }\n\n    function setOwnFIProfile(string memory name, string memory addr, string memory phone) public {\n        FinancialInstitution storage target = financialInstitutions[msg.sender];\n        require(target.isValid == true);\n\n        target.name = name;\n        target.addr = addr;\n        target.phone = phone; \n    }\n\n    function startFIApplication(string memory name, string memory addr, string memory phone) public {\n        FIRequest storage newFI = FIRequests[msg.sender];\n        require(newFI.isValid == false);\n\n        newFI.isValid = true;\n        newFI.name = name;\n        newFI.addr = addr;\n        newFI.phone = phone;\n\n        emit FIRequestVote(msg.sender);\n    }\n\n    function voteFIApplication(address target) public isFinancialInstitution {\n        FIRequest storage newFI = FIRequests[target];\n        require(newFI.isValid == true);\n        require(newFI.approvers[msg.sender] == false);\n\n        newFI.approvers[msg.sender] = true;\n        newFI.approvals += 1;\n\n        if (newFI.approvals >= FIVotingThreshold) {\n            newFI.isValid = false;\n            \n            FinancialInstitution storage approvedFI = financialInstitutions[target];\n            approvedFI.name = newFI.name;\n            approvedFI.addr = newFI.addr;\n            approvedFI.phone = newFI.phone;\n            approvedFI.isValid = true;\n            approvedFI.isConsortium = false;\n\n            emit NewFI(target);\n        }\n    }\n\n    function startConsortiumApplication() public isFinancialInstitution{\n        ConsortiumRequest storage newConsortium = consortiumRequests[msg.sender];\n        require(newConsortium.isValid == false);\n\n        newConsortium.isValid = true;\n\n        emit ConsortiumMemberRequestVote(msg.sender);\n    }\n\n    function voteConsortiumApplication(address target) public isConsortium {\n        ConsortiumRequest storage newConsortium = consortiumRequests[target];\n        require(newConsortium.isValid == true);\n        require(newConsortium.approvers[msg.sender] == false);\n\n        newConsortium.approvers[msg.sender] = true;\n        newConsortium.approvals += 1;\n\n        if (newConsortium.approvals == consortiumAccs) { // unanimous voting\n            newConsortium.isValid = false;\n            \n            FinancialInstitution storage approved = financialInstitutions[target];\n            approved.isConsortium = true;\n            consortiumAccs += 1; \n\n            emit NewConsortiumMember(target);\n        }\n    }\n}\n",
  "sourcePath": "/Users/bradleylewis/Desktop/rhb-hackathon-2021/truffle/contracts/RHBChain.sol",
  "compiler": {
    "name": "solc",
    "version": "0.5.16+commit.9c3226ce.Emscripten.clang"
  },
  "schemaVersion": "3.4.1",
  "updatedAt": "2021-06-12T18:39:16.391Z",
  "networkType": "ethereum",
  "devdoc": {
    "methods": {}
  },
  "userdoc": {
    "methods": {}
  }
}