{
  "contractName": "RHBChain",
  "abi": [
    {
      "inputs": [],
      "payable": false,
      "stateMutability": "nonpayable",
      "type": "constructor"
    },
    {
      "anonymous": false,
      "inputs": [
        {
          "indexed": false,
          "internalType": "address",
          "name": "requester",
          "type": "address"
        }
      ],
      "name": "ConsortiumMemberRequestVote",
      "type": "event"
    },
    {
      "anonymous": false,
      "inputs": [
        {
          "indexed": false,
          "internalType": "address",
          "name": "requester",
          "type": "address"
        },
        {
          "indexed": false,
          "internalType": "string",
          "name": "name",
          "type": "string"
        },
        {
          "indexed": false,
          "internalType": "string",
          "name": "addr",
          "type": "string"
        },
        {
          "indexed": false,
          "internalType": "string",
          "name": "phone",
          "type": "string"
        }
      ],
      "name": "FIRequestVote",
      "type": "event"
    },
    {
      "anonymous": false,
      "inputs": [
        {
          "indexed": false,
          "internalType": "address",
          "name": "approvedMember",
          "type": "address"
        }
      ],
      "name": "NewConsortiumMember",
      "type": "event"
    },
    {
      "anonymous": false,
      "inputs": [
        {
          "indexed": false,
          "internalType": "address",
          "name": "approvedFI",
          "type": "address"
        }
      ],
      "name": "NewFI",
      "type": "event"
    },
    {
      "constant": true,
      "inputs": [
        {
          "internalType": "string",
          "name": "icNumber",
          "type": "string"
        }
      ],
      "name": "icLookup",
      "outputs": [
        {
          "internalType": "bool",
          "name": "",
          "type": "bool"
        }
      ],
      "payable": false,
      "stateMutability": "view",
      "type": "function"
    },
    {
      "constant": true,
      "inputs": [],
      "name": "getOwnProfile",
      "outputs": [
        {
          "internalType": "string",
          "name": "",
          "type": "string"
        },
        {
          "internalType": "string",
          "name": "",
          "type": "string"
        },
        {
          "internalType": "string",
          "name": "",
          "type": "string"
        },
        {
          "internalType": "string",
          "name": "",
          "type": "string"
        },
        {
          "internalType": "uint64",
          "name": "",
          "type": "uint64"
        }
      ],
      "payable": false,
      "stateMutability": "view",
      "type": "function"
    },
    {
      "constant": false,
      "inputs": [
        {
          "internalType": "string",
          "name": "name",
          "type": "string"
        },
        {
          "internalType": "string",
          "name": "addr",
          "type": "string"
        },
        {
          "internalType": "string",
          "name": "phone",
          "type": "string"
        },
        {
          "internalType": "string",
          "name": "icNumber",
          "type": "string"
        },
        {
          "internalType": "uint64",
          "name": "dob",
          "type": "uint64"
        }
      ],
      "name": "setOwnProfile",
      "outputs": [],
      "payable": false,
      "stateMutability": "nonpayable",
      "type": "function"
    },
    {
      "constant": false,
      "inputs": [
        {
          "internalType": "address",
          "name": "profile",
          "type": "address"
        }
      ],
      "name": "getCreditReportVariables",
      "outputs": [
        {
          "components": [
            {
              "internalType": "string",
              "name": "name",
              "type": "string"
            },
            {
              "internalType": "string",
              "name": "addr",
              "type": "string"
            },
            {
              "internalType": "string",
              "name": "phone",
              "type": "string"
            },
            {
              "internalType": "string",
              "name": "icNumber",
              "type": "string"
            },
            {
              "internalType": "uint64",
              "name": "dob",
              "type": "uint64"
            },
            {
              "components": [
                {
                  "internalType": "address",
                  "name": "FI",
                  "type": "address"
                },
                {
                  "internalType": "uint256",
                  "name": "dateOpen",
                  "type": "uint256"
                },
                {
                  "internalType": "uint256",
                  "name": "dateClosed",
                  "type": "uint256"
                },
                {
                  "internalType": "uint64",
                  "name": "balance",
                  "type": "uint64"
                },
                {
                  "internalType": "uint64",
                  "name": "maxBalance",
                  "type": "uint64"
                },
                {
                  "internalType": "enum RHBChain.PaymentInterval",
                  "name": "interval",
                  "type": "uint8"
                },
                {
                  "internalType": "enum RHBChain.PaymentType[]",
                  "name": "payments",
                  "type": "uint8[]"
                },
                {
                  "internalType": "string",
                  "name": "terms",
                  "type": "string"
                }
              ],
              "internalType": "struct RHBChain.CreditAccount[]",
              "name": "accounts",
              "type": "tuple[]"
            },
            {
              "components": [
                {
                  "internalType": "uint256",
                  "name": "date",
                  "type": "uint256"
                },
                {
                  "internalType": "address",
                  "name": "inquirer",
                  "type": "address"
                }
              ],
              "internalType": "struct RHBChain.Inquiry[]",
              "name": "inquiries",
              "type": "tuple[]"
            },
            {
              "internalType": "bool",
              "name": "isValid",
              "type": "bool"
            }
          ],
          "internalType": "struct RHBChain.Profile",
          "name": "",
          "type": "tuple"
        }
      ],
      "payable": false,
      "stateMutability": "nonpayable",
      "type": "function"
    },
    {
      "constant": false,
      "inputs": [
        {
          "internalType": "address",
          "name": "profile",
          "type": "address"
        },
        {
          "internalType": "string",
          "name": "terms",
          "type": "string"
        },
        {
          "internalType": "uint64",
          "name": "balance",
          "type": "uint64"
        },
        {
          "internalType": "uint256",
          "name": "paymentInterval",
          "type": "uint256"
        }
      ],
      "name": "openCreditAccount",
      "outputs": [
        {
          "internalType": "uint256",
          "name": "",
          "type": "uint256"
        }
      ],
      "payable": false,
      "stateMutability": "nonpayable",
      "type": "function"
    },
    {
      "constant": false,
      "inputs": [
        {
          "internalType": "address",
          "name": "profile",
          "type": "address"
        },
        {
          "internalType": "uint256",
          "name": "UID",
          "type": "uint256"
        }
      ],
      "name": "closeCreditAccount",
      "outputs": [],
      "payable": false,
      "stateMutability": "nonpayable",
      "type": "function"
    },
    {
      "constant": false,
      "inputs": [
        {
          "internalType": "address",
          "name": "profile",
          "type": "address"
        },
        {
          "internalType": "uint256",
          "name": "UID",
          "type": "uint256"
        },
        {
          "internalType": "uint64",
          "name": "balance",
          "type": "uint64"
        }
      ],
      "name": "updateCreditAccountBal",
      "outputs": [],
      "payable": false,
      "stateMutability": "nonpayable",
      "type": "function"
    },
    {
      "constant": false,
      "inputs": [
        {
          "internalType": "address",
          "name": "profile",
          "type": "address"
        },
        {
          "internalType": "uint256",
          "name": "UID",
          "type": "uint256"
        },
        {
          "internalType": "uint256",
          "name": "payment",
          "type": "uint256"
        }
      ],
      "name": "updateCreditAccountPayment",
      "outputs": [],
      "payable": false,
      "stateMutability": "nonpayable",
      "type": "function"
    },
    {
      "constant": true,
      "inputs": [],
      "name": "getOwnFIProfile",
      "outputs": [
        {
          "internalType": "string",
          "name": "",
          "type": "string"
        },
        {
          "internalType": "string",
          "name": "",
          "type": "string"
        },
        {
          "internalType": "string",
          "name": "",
          "type": "string"
        },
        {
          "internalType": "bool",
          "name": "",
          "type": "bool"
        }
      ],
      "payable": false,
      "stateMutability": "view",
      "type": "function"
    },
    {
      "constant": true,
      "inputs": [
        {
          "internalType": "address",
          "name": "profile",
          "type": "address"
        }
      ],
      "name": "getFIProfile",
      "outputs": [
        {
          "internalType": "string",
          "name": "",
          "type": "string"
        },
        {
          "internalType": "string",
          "name": "",
          "type": "string"
        },
        {
          "internalType": "string",
          "name": "",
          "type": "string"
        },
        {
          "internalType": "bool",
          "name": "",
          "type": "bool"
        }
      ],
      "payable": false,
      "stateMutability": "view",
      "type": "function"
    },
    {
      "constant": false,
      "inputs": [
        {
          "internalType": "string",
          "name": "name",
          "type": "string"
        },
        {
          "internalType": "string",
          "name": "addr",
          "type": "string"
        },
        {
          "internalType": "string",
          "name": "phone",
          "type": "string"
        }
      ],
      "name": "setOwnFIProfile",
      "outputs": [],
      "payable": false,
      "stateMutability": "nonpayable",
      "type": "function"
    },
    {
      "constant": false,
      "inputs": [
        {
          "internalType": "string",
          "name": "name",
          "type": "string"
        },
        {
          "internalType": "string",
          "name": "addr",
          "type": "string"
        },
        {
          "internalType": "string",
          "name": "phone",
          "type": "string"
        }
      ],
      "name": "startFIApplication",
      "outputs": [],
      "payable": false,
      "stateMutability": "nonpayable",
      "type": "function"
    },
    {
      "constant": true,
      "inputs": [
        {
          "internalType": "address",
          "name": "target",
          "type": "address"
        }
      ],
      "name": "getFIApplicationDetails",
      "outputs": [
        {
          "internalType": "string",
          "name": "",
          "type": "string"
        },
        {
          "internalType": "string",
          "name": "",
          "type": "string"
        },
        {
          "internalType": "string",
          "name": "",
          "type": "string"
        }
      ],
      "payable": false,
      "stateMutability": "view",
      "type": "function"
    },
    {
      "constant": false,
      "inputs": [
        {
          "internalType": "address",
          "name": "target",
          "type": "address"
        }
      ],
      "name": "voteFIApplication",
      "outputs": [],
      "payable": false,
      "stateMutability": "nonpayable",
      "type": "function"
    },
    {
      "constant": false,
      "inputs": [],
      "name": "startConsortiumApplication",
      "outputs": [],
      "payable": false,
      "stateMutability": "nonpayable",
      "type": "function"
    },
    {
      "constant": false,
      "inputs": [
        {
          "internalType": "address",
          "name": "target",
          "type": "address"
        }
      ],
      "name": "voteConsortiumApplication",
      "outputs": [],
      "payable": false,
      "stateMutability": "nonpayable",
      "type": "function"
    }
  ],
  "bytecode": "0x60806040526001600060046101000a81548163ffffffff021916908363ffffffff16021790555034801561003257600080fd5b506001600360003373ffffffffffffffffffffffffffffffffffffffff1673ffffffffffffffffffffffffffffffffffffffff16815260200190815260200160002060030160006101000a81548160ff0219169083151502179055506001600360003373ffffffffffffffffffffffffffffffffffffffff1673ffffffffffffffffffffffffffffffffffffffff16815260200190815260200160002060030160016101000a81548160ff02191690831515021790555060016000806101000a81548163ffffffff021916908363ffffffff160217905550613a9f806101196000396000f3fe608060405234801561001057600080fd5b50600436106101005760003560e01c80637969e2d211610097578063dd33359e11610066578063dd33359e14610286578063ea183982146102a2578063fd1b5158146102d2578063ff48b7e0146102f457610100565b80637969e2d2146102165780638c5cdc5c14610232578063bab62dc51461024e578063c03cd3b41461026a57610100565b806332847706116100d3578063328477061461017c5780634249a7cb146101985780634543fc40146101c857806369ec4974146101fa57610100565b80630d5057731461010557806323f2a02d1461012157806326faa73c14610151578063305f7a8314610172575b600080fd5b61011f600480360361011a9190810190612eff565b610327565b005b61013b60048036036101369190810190612dd0565b61041d565b604051610148919061374a565b60405180910390f35b610159610c30565b6040516101699493929190613681565b60405180910390f35b61017a610ee8565b005b61019660048036036101919190810190612f8f565b611004565b005b6101b260048036036101ad9190810190612f4e565b6110ba565b6040516101bf919061361a565b60405180910390f35b6101e260048036036101dd9190810190612dd0565b6110ef565b6040516101f193929190613635565b60405180910390f35b610214600480360361020f9190810190612f8f565b611347565b005b610230600480360361022b9190810190613026565b611457565b005b61024c60048036036102479190810190612eb0565b6115c1565b005b61026860048036036102639190810190612dd0565b6116e9565b005b610284600480360361027f9190810190612dd0565b6119ec565b005b6102a0600480360361029b9190810190612e74565b611c90565b005b6102bc60048036036102b79190810190612df9565b611d90565b6040516102c9919061376c565b60405180910390f35b6102da61203b565b6040516102eb9594939291906136db565b60405180910390f35b61030e60048036036103099190810190612dd0565b6126fb565b60405161031e9493929190613681565b60405180910390f35b60011515600360003373ffffffffffffffffffffffffffffffffffffffff1673ffffffffffffffffffffffffffffffffffffffff16815260200190815260200160002060030160009054906101000a900460ff1615151461038757600080fd5b6000600160008573ffffffffffffffffffffffffffffffffffffffff1673ffffffffffffffffffffffffffffffffffffffff168152602001908152602001600020905060008160050184815481106103db57fe5b90600052602060002090600602019050828160030160006101000a81548167ffffffffffffffff021916908367ffffffffffffffff1602179055505050505050565b6104256129b4565b8160011515600360003373ffffffffffffffffffffffffffffffffffffffff1673ffffffffffffffffffffffffffffffffffffffff16815260200190815260200160002060030160009054906101000a900460ff16151514806104b357503373ffffffffffffffffffffffffffffffffffffffff168173ffffffffffffffffffffffffffffffffffffffff16145b6104bc57600080fd5b6000600160008573ffffffffffffffffffffffffffffffffffffffff1673ffffffffffffffffffffffffffffffffffffffff1681526020019081526020016000209050600115158160070160009054906101000a900460ff1615151461052157600080fd5b8373ffffffffffffffffffffffffffffffffffffffff163373ffffffffffffffffffffffffffffffffffffffff1614610603578060060160405180604001604052804281526020013373ffffffffffffffffffffffffffffffffffffffff16815250908060018154018082558091505090600182039060005260206000209060020201600090919290919091506000820151816000015560208201518160010160006101000a81548173ffffffffffffffffffffffffffffffffffffffff021916908373ffffffffffffffffffffffffffffffffffffffff1602179055505050505b8060405180610100016040529081600082018054600181600116156101000203166002900480601f0160208091040260200160405190810160405280929190818152602001828054600181600116156101000203166002900480156106a95780601f1061067e576101008083540402835291602001916106a9565b820191906000526020600020905b81548152906001019060200180831161068c57829003601f168201915b50505050508152602001600182018054600181600116156101000203166002900480601f01602080910402602001604051908101604052809291908181526020018280546001816001161561010002031660029004801561074b5780601f106107205761010080835404028352916020019161074b565b820191906000526020600020905b81548152906001019060200180831161072e57829003601f168201915b50505050508152602001600282018054600181600116156101000203166002900480601f0160208091040260200160405190810160405280929190818152602001828054600181600116156101000203166002900480156107ed5780601f106107c2576101008083540402835291602001916107ed565b820191906000526020600020905b8154815290600101906020018083116107d057829003601f168201915b50505050508152602001600382018054600181600116156101000203166002900480601f01602080910402602001604051908101604052809291908181526020018280546001816001161561010002031660029004801561088f5780601f106108645761010080835404028352916020019161088f565b820191906000526020600020905b81548152906001019060200180831161087257829003601f168201915b505050505081526020016004820160009054906101000a900467ffffffffffffffff1667ffffffffffffffff1667ffffffffffffffff16815260200160058201805480602002602001604051908101604052809291908181526020016000905b82821015610b455783829060005260206000209060060201604051806101000160405290816000820160009054906101000a900473ffffffffffffffffffffffffffffffffffffffff1673ffffffffffffffffffffffffffffffffffffffff1673ffffffffffffffffffffffffffffffffffffffff16815260200160018201548152602001600282015481526020016003820160009054906101000a900467ffffffffffffffff1667ffffffffffffffff1667ffffffffffffffff1681526020016003820160089054906101000a900467ffffffffffffffff1667ffffffffffffffff1667ffffffffffffffff1681526020016003820160109054906101000a900460ff1660018111156109ff57fe5b6001811115610a0a57fe5b815260200160048201805480602002602001604051908101604052809291908181526020018280548015610a8b57602002820191906000526020600020906000905b82829054906101000a900460ff166002811115610a6557fe5b81526020019060010190602082600001049283019260010382029150808411610a4c5790505b50505050508152602001600582018054600181600116156101000203166002900480601f016020809104026020016040519081016040528092919081815260200182805460018160011615610100020316600290048015610b2d5780601f10610b0257610100808354040283529160200191610b2d565b820191906000526020600020905b815481529060010190602001808311610b1057829003601f168201915b505050505081525050815260200190600101906108ef565b50505050815260200160068201805480602002602001604051908101604052809291908181526020016000905b82821015610c045783829060005260206000209060020201604051806040016040529081600082015481526020016001820160009054906101000a900473ffffffffffffffffffffffffffffffffffffffff1673ffffffffffffffffffffffffffffffffffffffff1673ffffffffffffffffffffffffffffffffffffffff168152505081526020019060010190610b72565b5050505081526020016007820160009054906101000a900460ff16151515158152505092505050919050565b60608060606000610c3f612a05565b600360003373ffffffffffffffffffffffffffffffffffffffff1673ffffffffffffffffffffffffffffffffffffffff1681526020019081526020016000206040518060a0016040529081600082018054600181600116156101000203166002900480601f016020809104026020016040519081016040528092919081815260200182805460018160011615610100020316600290048015610d225780601f10610cf757610100808354040283529160200191610d22565b820191906000526020600020905b815481529060010190602001808311610d0557829003601f168201915b50505050508152602001600182018054600181600116156101000203166002900480601f016020809104026020016040519081016040528092919081815260200182805460018160011615610100020316600290048015610dc45780601f10610d9957610100808354040283529160200191610dc4565b820191906000526020600020905b815481529060010190602001808311610da757829003601f168201915b50505050508152602001600282018054600181600116156101000203166002900480601f016020809104026020016040519081016040528092919081815260200182805460018160011615610100020316600290048015610e665780601f10610e3b57610100808354040283529160200191610e66565b820191906000526020600020905b815481529060010190602001808311610e4957829003601f168201915b505050505081526020016003820160009054906101000a900460ff161515151581526020016003820160019054906101000a900460ff1615151515815250509050600115158160600151151514610ebc57600080fd5b806000015181602001518260400151836080015183935082925081915094509450945094505090919293565b60011515600360003373ffffffffffffffffffffffffffffffffffffffff1673ffffffffffffffffffffffffffffffffffffffff16815260200190815260200160002060030160009054906101000a900460ff16151514610f4857600080fd5b6000600560003373ffffffffffffffffffffffffffffffffffffffff1673ffffffffffffffffffffffffffffffffffffffff1681526020019081526020016000209050600015158160020160009054906101000a900460ff16151514610fad57600080fd5b60018160020160006101000a81548160ff0219169083151502179055507f274f87f3b7a240da7b161c82f03ce45372741e1ae0974304555c60245c88b63633604051610ff991906135a5565b60405180910390a150565b6000600360003373ffffffffffffffffffffffffffffffffffffffff1673ffffffffffffffffffffffffffffffffffffffff1681526020019081526020016000209050600115158160030160009054906101000a900460ff1615151461106957600080fd5b83816000019080519060200190611081929190612a38565b508281600101908051906020019061109a929190612a38565b50818160020190805190602001906110b3929190612a38565b5050505050565b60006002826040516110cc9190613573565b908152602001604051809103902060009054906101000a900460ff169050919050565b60608060606000600460008673ffffffffffffffffffffffffffffffffffffffff1673ffffffffffffffffffffffffffffffffffffffff1681526020019081526020016000209050600115158160050160009054906101000a900460ff1615151461115957600080fd5b806000018160010182600201828054600181600116156101000203166002900480601f0160208091040260200160405190810160405280929190818152602001828054600181600116156101000203166002900480156111fa5780601f106111cf576101008083540402835291602001916111fa565b820191906000526020600020905b8154815290600101906020018083116111dd57829003601f168201915b50505050509250818054600181600116156101000203166002900480601f0160208091040260200160405190810160405280929190818152602001828054600181600116156101000203166002900480156112965780601f1061126b57610100808354040283529160200191611296565b820191906000526020600020905b81548152906001019060200180831161127957829003601f168201915b50505050509150808054600181600116156101000203166002900480601f0160208091040260200160405190810160405280929190818152602001828054600181600116156101000203166002900480156113325780601f1061130757610100808354040283529160200191611332565b820191906000526020600020905b81548152906001019060200180831161131557829003601f168201915b50505050509050935093509350509193909250565b6000600460003373ffffffffffffffffffffffffffffffffffffffff1673ffffffffffffffffffffffffffffffffffffffff1681526020019081526020016000209050600015158160050160009054906101000a900460ff161515146113ac57600080fd5b60018160050160006101000a81548160ff021916908315150217905550838160000190805190602001906113e1929190612a38565b50828160010190805190602001906113fa929190612a38565b5081816002019080519060200190611413929190612a38565b507f6afaa9d7218c3123158e726a6b9b13a6c1c487935fc520816178add2423213d93385858560405161144994939291906135c0565b60405180910390a150505050565b6000151560028360405161146b9190613573565b908152602001604051809103902060009054906101000a900460ff1615151461149357600080fd5b6000600160003373ffffffffffffffffffffffffffffffffffffffff1673ffffffffffffffffffffffffffffffffffffffff168152602001908152602001600020905060016002846040516114e89190613573565b908152602001604051809103902060006101000a81548160ff02191690831515021790555060018160070160006101000a81548160ff02191690831515021790555085816000019080519060200190611542929190612a38565b508481600101908051906020019061155b929190612a38565b5083816002019080519060200190611574929190612a38565b508281600301908051906020019061158d929190612a38565b50818160040160006101000a81548167ffffffffffffffff021916908367ffffffffffffffff160217905550505050505050565b60011515600360003373ffffffffffffffffffffffffffffffffffffffff1673ffffffffffffffffffffffffffffffffffffffff16815260200190815260200160002060030160009054906101000a900460ff1615151461162157600080fd5b6000600160008573ffffffffffffffffffffffffffffffffffffffff1673ffffffffffffffffffffffffffffffffffffffff1681526020019081526020016000209050600081600501848154811061167557fe5b906000526020600020906006020190508060040183600281111561169557fe5b908060018154018082558091505090600182039060005260206000209060209182820401919006909192909190916101000a81548160ff021916908360028111156116dc57fe5b0217905550505050505050565b60011515600360003373ffffffffffffffffffffffffffffffffffffffff1673ffffffffffffffffffffffffffffffffffffffff16815260200190815260200160002060030160009054906101000a900460ff1615151461174957600080fd5b6000600460008373ffffffffffffffffffffffffffffffffffffffff1673ffffffffffffffffffffffffffffffffffffffff1681526020019081526020016000209050600115158160050160009054906101000a900460ff161515146117ae57600080fd5b600015158160030160003373ffffffffffffffffffffffffffffffffffffffff1673ffffffffffffffffffffffffffffffffffffffff16815260200190815260200160002060009054906101000a900460ff1615151461180d57600080fd5b60018160030160003373ffffffffffffffffffffffffffffffffffffffff1673ffffffffffffffffffffffffffffffffffffffff16815260200190815260200160002060006101000a81548160ff02191690831515021790555060018160040160008282540192505081905550600060049054906101000a900463ffffffff1663ffffffff168160040154106119e85760008160050160006101000a81548160ff0219169083151502179055506000600360008473ffffffffffffffffffffffffffffffffffffffff1673ffffffffffffffffffffffffffffffffffffffff168152602001908152602001600020905081600001816000019080546001816001161561010002031660029004611924929190612ab8565b508160010181600101908054600181600116156101000203166002900461194c929190612ab8565b5081600201816002019080546001816001161561010002031660029004611974929190612ab8565b5060018160030160006101000a81548160ff02191690831515021790555060008160030160016101000a81548160ff0219169083151502179055507f2cc30d8122eba04f27e36a67004b48cd1216fdd7a1e9e5ca7a502899a221b6c9836040516119de919061358a565b60405180910390a1505b5050565b60011515600360003373ffffffffffffffffffffffffffffffffffffffff1673ffffffffffffffffffffffffffffffffffffffff16815260200190815260200160002060030160019054906101000a900460ff16151514611a4c57600080fd5b6000600560008373ffffffffffffffffffffffffffffffffffffffff1673ffffffffffffffffffffffffffffffffffffffff1681526020019081526020016000209050600115158160020160009054906101000a900460ff16151514611ab157600080fd5b600015158160000160003373ffffffffffffffffffffffffffffffffffffffff1673ffffffffffffffffffffffffffffffffffffffff16815260200190815260200160002060009054906101000a900460ff16151514611b1057600080fd5b60018160000160003373ffffffffffffffffffffffffffffffffffffffff1673ffffffffffffffffffffffffffffffffffffffff16815260200190815260200160002060006101000a81548160ff021916908315150217905550600181600101600082825401925050819055506000809054906101000a900463ffffffff1663ffffffff1681600101541415611c8c5760008160020160006101000a81548160ff0219169083151502179055506000600360008473ffffffffffffffffffffffffffffffffffffffff1673ffffffffffffffffffffffffffffffffffffffff168152602001908152602001600020905060018160030160016101000a81548160ff02191690831515021790555060016000808282829054906101000a900463ffffffff160192506101000a81548163ffffffff021916908363ffffffff1602179055507f96ea63069d6e8816e9dc0a2b452cea2e5af94984642c5350860d788f8389c2ae83604051611c82919061358a565b60405180910390a1505b5050565b60011515600360003373ffffffffffffffffffffffffffffffffffffffff1673ffffffffffffffffffffffffffffffffffffffff16815260200190815260200160002060030160009054906101000a900460ff16151514611cf057600080fd5b6000600160008473ffffffffffffffffffffffffffffffffffffffff1673ffffffffffffffffffffffffffffffffffffffff16815260200190815260200160002090506000816005018381548110611d4457fe5b90600052602060002090600602016002015414611d6057600080fd5b6000816005018381548110611d7157fe5b9060005260206000209060060201905042816002018190555050505050565b600060011515600360003373ffffffffffffffffffffffffffffffffffffffff1673ffffffffffffffffffffffffffffffffffffffff16815260200190815260200160002060030160009054906101000a900460ff16151514611df257600080fd5b611dfa612b3f565b33816000019073ffffffffffffffffffffffffffffffffffffffff16908173ffffffffffffffffffffffffffffffffffffffff16815250504281602001818152505083816060019067ffffffffffffffff16908167ffffffffffffffff1681525050826001811115611e6857fe5b8160a001906001811115611e7857fe5b90816001811115611e8557fe5b81525050848160e001819052506000600160008873ffffffffffffffffffffffffffffffffffffffff1673ffffffffffffffffffffffffffffffffffffffff168152602001908152602001600020905080600501829080600181540180825580915050906001820390600052602060002090600602016000909192909190915060008201518160000160006101000a81548173ffffffffffffffffffffffffffffffffffffffff021916908373ffffffffffffffffffffffffffffffffffffffff160217905550602082015181600101556040820151816002015560608201518160030160006101000a81548167ffffffffffffffff021916908367ffffffffffffffff16021790555060808201518160030160086101000a81548167ffffffffffffffff021916908367ffffffffffffffff16021790555060a08201518160030160106101000a81548160ff02191690836001811115611fe257fe5b021790555060c0820151816004019080519060200190612003929190612bb9565b5060e0820151816005019080519060200190612020929190612c68565b50505050600181600501805490500392505050949350505050565b606080606080600061204b6129b4565b600160003373ffffffffffffffffffffffffffffffffffffffff1673ffffffffffffffffffffffffffffffffffffffff16815260200190815260200160002060405180610100016040529081600082018054600181600116156101000203166002900480601f01602080910402602001604051908101604052809291908181526020018280546001816001161561010002031660029004801561212f5780601f106121045761010080835404028352916020019161212f565b820191906000526020600020905b81548152906001019060200180831161211257829003601f168201915b50505050508152602001600182018054600181600116156101000203166002900480601f0160208091040260200160405190810160405280929190818152602001828054600181600116156101000203166002900480156121d15780601f106121a6576101008083540402835291602001916121d1565b820191906000526020600020905b8154815290600101906020018083116121b457829003601f168201915b50505050508152602001600282018054600181600116156101000203166002900480601f0160208091040260200160405190810160405280929190818152602001828054600181600116156101000203166002900480156122735780601f1061224857610100808354040283529160200191612273565b820191906000526020600020905b81548152906001019060200180831161225657829003601f168201915b50505050508152602001600382018054600181600116156101000203166002900480601f0160208091040260200160405190810160405280929190818152602001828054600181600116156101000203166002900480156123155780601f106122ea57610100808354040283529160200191612315565b820191906000526020600020905b8154815290600101906020018083116122f857829003601f168201915b505050505081526020016004820160009054906101000a900467ffffffffffffffff1667ffffffffffffffff1667ffffffffffffffff16815260200160058201805480602002602001604051908101604052809291908181526020016000905b828210156125cb5783829060005260206000209060060201604051806101000160405290816000820160009054906101000a900473ffffffffffffffffffffffffffffffffffffffff1673ffffffffffffffffffffffffffffffffffffffff1673ffffffffffffffffffffffffffffffffffffffff16815260200160018201548152602001600282015481526020016003820160009054906101000a900467ffffffffffffffff1667ffffffffffffffff1667ffffffffffffffff1681526020016003820160089054906101000a900467ffffffffffffffff1667ffffffffffffffff1667ffffffffffffffff1681526020016003820160109054906101000a900460ff16600181111561248557fe5b600181111561249057fe5b81526020016004820180548060200260200160405190810160405280929190818152602001828054801561251157602002820191906000526020600020906000905b82829054906101000a900460ff1660028111156124eb57fe5b815260200190600101906020826000010492830192600103820291508084116124d25790505b50505050508152602001600582018054600181600116156101000203166002900480601f0160208091040260200160405190810160405280929190818152602001828054600181600116156101000203166002900480156125b35780601f10612588576101008083540402835291602001916125b3565b820191906000526020600020905b81548152906001019060200180831161259657829003601f168201915b50505050508152505081526020019060010190612375565b50505050815260200160068201805480602002602001604051908101604052809291908181526020016000905b8282101561268a5783829060005260206000209060020201604051806040016040529081600082015481526020016001820160009054906101000a900473ffffffffffffffffffffffffffffffffffffffff1673ffffffffffffffffffffffffffffffffffffffff1673ffffffffffffffffffffffffffffffffffffffff1681525050815260200190600101906125f8565b5050505081526020016007820160009054906101000a900460ff1615151515815250509050600115158160e001511515146126c457600080fd5b8060000151816020015182604001518360600151846080015184945083935082925081915095509550955095509550509091929394565b6060806060600061270a612a05565b600360008773ffffffffffffffffffffffffffffffffffffffff1673ffffffffffffffffffffffffffffffffffffffff1681526020019081526020016000206040518060a0016040529081600082018054600181600116156101000203166002900480601f0160208091040260200160405190810160405280929190818152602001828054600181600116156101000203166002900480156127ed5780601f106127c2576101008083540402835291602001916127ed565b820191906000526020600020905b8154815290600101906020018083116127d057829003601f168201915b50505050508152602001600182018054600181600116156101000203166002900480601f01602080910402602001604051908101604052809291908181526020018280546001816001161561010002031660029004801561288f5780601f106128645761010080835404028352916020019161288f565b820191906000526020600020905b81548152906001019060200180831161287257829003601f168201915b50505050508152602001600282018054600181600116156101000203166002900480601f0160208091040260200160405190810160405280929190818152602001828054600181600116156101000203166002900480156129315780601f1061290657610100808354040283529160200191612931565b820191906000526020600020905b81548152906001019060200180831161291457829003601f168201915b505050505081526020016003820160009054906101000a900460ff161515151581526020016003820160019054906101000a900460ff161515151581525050905060011515816060015115151461298757600080fd5b80600001518160200151826040015183608001518393508292508191509450945094509450509193509193565b60405180610100016040528060608152602001606081526020016060815260200160608152602001600067ffffffffffffffff16815260200160608152602001606081526020016000151581525090565b6040518060a001604052806060815260200160608152602001606081526020016000151581526020016000151581525090565b828054600181600116156101000203166002900490600052602060002090601f016020900481019282601f10612a7957805160ff1916838001178555612aa7565b82800160010185558215612aa7579182015b82811115612aa6578251825591602001919060010190612a8b565b5b509050612ab49190612ce8565b5090565b828054600181600116156101000203166002900490600052602060002090601f016020900481019282601f10612af15780548555612b2e565b82800160010185558215612b2e57600052602060002091601f016020900482015b82811115612b2d578254825591600101919060010190612b12565b5b509050612b3b9190612ce8565b5090565b604051806101000160405280600073ffffffffffffffffffffffffffffffffffffffff1681526020016000815260200160008152602001600067ffffffffffffffff168152602001600067ffffffffffffffff16815260200160006001811115612ba557fe5b815260200160608152602001606081525090565b82805482825590600052602060002090601f01602090048101928215612c575791602002820160005b83821115612c2857835183826101000a81548160ff02191690836002811115612c0757fe5b02179055509260200192600101602081600001049283019260010302612be2565b8015612c555782816101000a81549060ff0219169055600101602081600001049283019260010302612c28565b505b509050612c649190612d0d565b5090565b828054600181600116156101000203166002900490600052602060002090601f016020900481019282601f10612ca957805160ff1916838001178555612cd7565b82800160010185558215612cd7579182015b82811115612cd6578251825591602001919060010190612cbb565b5b509050612ce49190612ce8565b5090565b612d0a91905b80821115612d06576000816000905550600101612cee565b5090565b90565b612d3a91905b80821115612d3657600081816101000a81549060ff021916905550600101612d13565b5090565b90565b600081359050612d4c81613a17565b92915050565b600082601f830112612d6357600080fd5b8135612d76612d71826137b4565b613787565b91508082526020830160208301858383011115612d9257600080fd5b612d9d8382846139aa565b50505092915050565b600081359050612db581613a2e565b92915050565b600081359050612dca81613a45565b92915050565b600060208284031215612de257600080fd5b6000612df084828501612d3d565b91505092915050565b60008060008060808587031215612e0f57600080fd5b6000612e1d87828801612d3d565b945050602085013567ffffffffffffffff811115612e3a57600080fd5b612e4687828801612d52565b9350506040612e5787828801612dbb565b9250506060612e6887828801612da6565b91505092959194509250565b60008060408385031215612e8757600080fd5b6000612e9585828601612d3d565b9250506020612ea685828601612da6565b9150509250929050565b600080600060608486031215612ec557600080fd5b6000612ed386828701612d3d565b9350506020612ee486828701612da6565b9250506040612ef586828701612da6565b9150509250925092565b600080600060608486031215612f1457600080fd5b6000612f2286828701612d3d565b9350506020612f3386828701612da6565b9250506040612f4486828701612dbb565b9150509250925092565b600060208284031215612f6057600080fd5b600082013567ffffffffffffffff811115612f7a57600080fd5b612f8684828501612d52565b91505092915050565b600080600060608486031215612fa457600080fd5b600084013567ffffffffffffffff811115612fbe57600080fd5b612fca86828701612d52565b935050602084013567ffffffffffffffff811115612fe757600080fd5b612ff386828701612d52565b925050604084013567ffffffffffffffff81111561301057600080fd5b61301c86828701612d52565b9150509250925092565b600080600080600060a0868803121561303e57600080fd5b600086013567ffffffffffffffff81111561305857600080fd5b61306488828901612d52565b955050602086013567ffffffffffffffff81111561308157600080fd5b61308d88828901612d52565b945050604086013567ffffffffffffffff8111156130aa57600080fd5b6130b688828901612d52565b935050606086013567ffffffffffffffff8111156130d357600080fd5b6130df88828901612d52565b92505060806130f088828901612dbb565b9150509295509295909350565b600061310983836132cc565b60208301905092915050565b6000613121838361337e565b905092915050565b60006131358383613435565b60408301905092915050565b61314a81613950565b82525050565b613159816138ce565b82525050565b613168816138ce565b82525050565b600061317982613810565b6131838185613890565b935061318e836137e0565b8060005b838110156131bf5781516131a688826130fd565b97506131b183613847565b925050600181019050613192565b5085935050505092915050565b60006131d78261381b565b6131e1818561386e565b9350836020820285016131f3856137f0565b8060005b8581101561322f57848403895281516132108582613115565b945061321b83613854565b925060208a019950506001810190506131f7565b50829750879550505050505092915050565b600061324c82613826565b613256818561387f565b935061326183613800565b8060005b838110156132925781516132798882613129565b975061328483613861565b925050600181019050613265565b5085935050505092915050565b6132a8816138e0565b82525050565b6132b7816138e0565b82525050565b6132c681613962565b82525050565b6132d581613974565b82525050565b60006132e68261383c565b6132f081856138b2565b93506133008185602086016139b9565b613309816139ec565b840191505092915050565b600061331f8261383c565b61332981856138c3565b93506133398185602086016139b9565b80840191505092915050565b600061335082613831565b61335a81856138a1565b935061336a8185602086016139b9565b613373816139ec565b840191505092915050565b6000610100830160008301516133976000860182613150565b5060208301516133aa6020860182613537565b5060408301516133bd6040860182613537565b5060608301516133d06060860182613555565b5060808301516133e36080860182613555565b5060a08301516133f660a08601826132bd565b5060c083015184820360c086015261340e828261316e565b91505060e083015184820360e08601526134288282613345565b9150508091505092915050565b60408201600082015161344b6000850182613537565b50602082015161345e6020850182613150565b50505050565b60006101008301600083015184820360008601526134828282613345565b9150506020830151848203602086015261349c8282613345565b915050604083015184820360408601526134b68282613345565b915050606083015184820360608601526134d08282613345565b91505060808301516134e56080860182613555565b5060a083015184820360a08601526134fd82826131cc565b91505060c083015184820360c08601526135178282613241565b91505060e083015161352c60e086018261329f565b508091505092915050565b61354081613932565b82525050565b61354f81613932565b82525050565b61355e8161393c565b82525050565b61356d8161393c565b82525050565b600061357f8284613314565b915081905092915050565b600060208201905061359f600083018461315f565b92915050565b60006020820190506135ba6000830184613141565b92915050565b60006080820190506135d56000830187613141565b81810360208301526135e781866132db565b905081810360408301526135fb81856132db565b9050818103606083015261360f81846132db565b905095945050505050565b600060208201905061362f60008301846132ae565b92915050565b6000606082019050818103600083015261364f81866132db565b9050818103602083015261366381856132db565b9050818103604083015261367781846132db565b9050949350505050565b6000608082019050818103600083015261369b81876132db565b905081810360208301526136af81866132db565b905081810360408301526136c381856132db565b90506136d260608301846132ae565b95945050505050565b600060a08201905081810360008301526136f581886132db565b9050818103602083015261370981876132db565b9050818103604083015261371d81866132db565b9050818103606083015261373181856132db565b90506137406080830184613564565b9695505050505050565b600060208201905081810360008301526137648184613464565b905092915050565b60006020820190506137816000830184613546565b92915050565b6000604051905081810181811067ffffffffffffffff821117156137aa57600080fd5b8060405250919050565b600067ffffffffffffffff8211156137cb57600080fd5b601f19601f8301169050602081019050919050565b6000819050602082019050919050565b6000819050602082019050919050565b6000819050602082019050919050565b600081519050919050565b600081519050919050565b600081519050919050565b600081519050919050565b600081519050919050565b6000602082019050919050565b6000602082019050919050565b6000602082019050919050565b600082825260208201905092915050565b600082825260208201905092915050565b600082825260208201905092915050565b600082825260208201905092915050565b600082825260208201905092915050565b600081905092915050565b60006138d982613912565b9050919050565b60008115159050919050565b60008190506138fa826139fd565b919050565b600081905061390d82613a0a565b919050565b600073ffffffffffffffffffffffffffffffffffffffff82169050919050565b6000819050919050565b600067ffffffffffffffff82169050919050565b600061395b82613986565b9050919050565b600061396d826138ec565b9050919050565b600061397f826138ff565b9050919050565b600061399182613998565b9050919050565b60006139a382613912565b9050919050565b82818337600083830152505050565b60005b838110156139d75780820151818401526020810190506139bc565b838111156139e6576000848401525b50505050565b6000601f19601f8301169050919050565b60028110613a0757fe5b50565b60038110613a1457fe5b50565b613a20816138ce565b8114613a2b57600080fd5b50565b613a3781613932565b8114613a4257600080fd5b50565b613a4e8161393c565b8114613a5957600080fd5b5056fea365627a7a72315820c572d2fc1cb9fae0b8055621d1e7f8ed731a4b7090a3bbca669b86ceedfee9b06c6578706572696d656e74616cf564736f6c63430005100040",
  "source": "pragma solidity >=0.4.21;\r\n\r\npragma experimental ABIEncoderV2;\r\n\r\ncontract RHBChain {\r\n\tuint32 private consortiumAccs;\r\n\tuint32 private FIVotingThreshold = 1;\r\n\r\n    enum PaymentInterval {\r\n        MONTHLY,\r\n        YEARLY\r\n    }\r\n    enum PaymentType {\r\n        ON_TIME,\r\n        LATE,\r\n        MISSED\r\n    }\r\n\tstruct CreditAccount {\r\n        address FI;\r\n\t\tuint256 dateOpen; // date of account opening, in UNIX epoch time\r\n\t\tuint256 dateClosed; // date of account closing, in UNIX epoch time\r\n\t\tuint64 balance; // balance of account\r\n\t\tuint64 maxBalance; // \r\n        PaymentInterval interval;\r\n        PaymentType[] payments;\r\n\t\tstring terms;\r\n\t}\r\n\tstruct Inquiry {\r\n\t\tuint256 date; // date of request\r\n\t\taddress inquirer;\r\n\t}\r\n    struct Profile {\r\n        string name;\r\n\t\tstring addr;\r\n\t\tstring phone;\r\n\t\tstring icNumber;\r\n\t\tuint64 dob; // date of birth, in UNIX epoch time\r\n        \r\n\t\tCreditAccount[] accounts;\r\n\t\tInquiry[] inquiries;\r\n\t\tbool isValid;\r\n    }\r\n\tstruct FinancialInstitution {\r\n\t\tstring name;\r\n\t\tstring addr;\r\n\t\tstring phone;\r\n\t\tbool isValid;\r\n\t\tbool isConsortium;\r\n\t}\r\n\tstruct FIRequest {\r\n        string name;\r\n        string addr;\r\n        string phone;\r\n\t\tmapping(address => bool) approvers;\r\n        uint approvals;\r\n\t\tbool isValid;\r\n\t}\r\n\tstruct ConsortiumRequest {\r\n\t\tmapping(address => bool) approvers;\r\n        uint approvals;\r\n\t\tbool isValid;\r\n\t}\r\n\r\n\tmapping(address => Profile) profiles;\r\n    mapping(string => bool) icLookupTbl;\r\n\r\n\tmapping(address => FinancialInstitution) financialInstitutions;\r\n\tmapping(address => FIRequest) FIRequests;\r\n\r\n\tmapping(address => ConsortiumRequest) consortiumRequests;\r\n\r\n\tevent FIRequestVote (\r\n\t\taddress requester, \r\n        string name, \r\n        string addr,\r\n        string phone\r\n\t);\r\n\tevent NewFI (\r\n\t\taddress approvedFI\r\n\t);\r\n\tevent ConsortiumMemberRequestVote (\r\n\t\taddress requester\r\n\t);\r\n\tevent NewConsortiumMember (\r\n\t\taddress approvedMember\r\n\t);\r\n\r\n    modifier isFinancialInstitution () {\r\n        require(financialInstitutions[msg.sender].isValid == true);\r\n        _;\r\n    }\r\n\tmodifier isFinancialInstitutionOrSelf(address profile) {\r\n\t\trequire(financialInstitutions[msg.sender].isValid == true || profile == msg.sender);\r\n\t\t_;\r\n\t}\r\n\tmodifier isConsortium() {\r\n\t\trequire(financialInstitutions[msg.sender].isConsortium == true);\r\n\t\t_;\r\n\t}\r\n\r\n\tconstructor() public {\r\n\t\tfinancialInstitutions[msg.sender].isValid = true;\r\n\t\tfinancialInstitutions[msg.sender].isConsortium = true;\r\n\t\tconsortiumAccs = 1;\r\n\t}\r\n\r\n    function icLookup(string memory icNumber) public view returns (bool) {\r\n        return icLookupTbl[icNumber];\r\n    }\r\n\r\n\tfunction getOwnProfile() public view returns (string memory, string memory, string memory, string memory, uint64) {\r\n\t\tProfile memory target = profiles[msg.sender];\r\n\t\trequire(target.isValid == true);\r\n\r\n\t\treturn (target.name, target.addr, target.phone, target.icNumber, target.dob);\r\n\t}\r\n\r\n\tfunction setOwnProfile(string memory name, string memory addr, string memory phone, string memory icNumber, uint64 dob) public {\r\n        require(icLookupTbl[icNumber] == false);\r\n\t\tProfile storage target = profiles[msg.sender];\r\n        icLookupTbl[icNumber] = true;\r\n\t\ttarget.isValid = true;\r\n\t\ttarget.name = name;\r\n\t\ttarget.addr = addr;\r\n\t\ttarget.phone = phone;\r\n\t\ttarget.icNumber = icNumber;\r\n\t\ttarget.dob = dob;\r\n\t}\r\n\r\n    function getCreditReportVariables(address profile) public isFinancialInstitutionOrSelf(profile) returns (Profile memory)  {\r\n        Profile storage target = profiles[profile];\r\n        require(target.isValid == true);\r\n        if (msg.sender != profile) {\r\n            target.inquiries.push(Inquiry(block.timestamp, msg.sender));\r\n        }\r\n        return target;\r\n    }\r\n\r\n    function openCreditAccount(address profile, string memory terms, uint64 balance, uint paymentInterval) public isFinancialInstitution returns (uint)  {\r\n        CreditAccount memory newCA;\r\n        newCA.FI = msg.sender;\r\n        newCA.dateOpen = block.timestamp;\r\n        newCA.balance = balance;\r\n        newCA.interval = PaymentInterval(paymentInterval);\r\n        newCA.terms = terms;\r\n\r\n        Profile storage target = profiles[profile];\r\n        target.accounts.push(newCA);\r\n\r\n        return target.accounts.length - 1;\r\n    }\r\n    function closeCreditAccount(address profile, uint UID) public isFinancialInstitution {\r\n        Profile storage target = profiles[profile];\r\n        require(target.accounts[UID].dateClosed == 0);\r\n        CreditAccount storage CA = target.accounts[UID];\r\n\r\n        CA.dateClosed = block.timestamp;\r\n    }\r\n    function updateCreditAccountBal(address profile, uint UID, uint64 balance) public isFinancialInstitution {\r\n        Profile storage target = profiles[profile];\r\n        CreditAccount storage CA = target.accounts[UID];\r\n\r\n        CA.balance = balance;\r\n    }\r\n    function updateCreditAccountPayment(address profile, uint UID, uint payment) public isFinancialInstitution {\r\n        Profile storage target = profiles[profile];\r\n        CreditAccount storage CA = target.accounts[UID];\r\n\r\n        CA.payments.push(PaymentType(payment));\r\n    }\r\n\r\n\tfunction getOwnFIProfile() public view returns (string memory, string memory, string memory, bool) {\r\n        FinancialInstitution memory target = financialInstitutions[msg.sender];\r\n        require(target.isValid == true);\r\n\r\n        return (target.name, target.addr, target.phone, target.isConsortium);\r\n    }\r\n\r\n    function getFIProfile(address profile) public view returns (string memory, string memory, string memory, bool) {\r\n        FinancialInstitution memory target = financialInstitutions[profile];\r\n        require(target.isValid == true);\r\n\r\n        return (target.name, target.addr, target.phone, target.isConsortium);\r\n    }\r\n\r\n    function setOwnFIProfile(string memory name, string memory addr, string memory phone) public {\r\n        FinancialInstitution storage target = financialInstitutions[msg.sender];\r\n        require(target.isValid == true);\r\n\r\n        target.name = name;\r\n        target.addr = addr;\r\n        target.phone = phone; \r\n    }\r\n\r\n    function startFIApplication(string memory name, string memory addr, string memory phone) public {\r\n        FIRequest storage newFI = FIRequests[msg.sender];\r\n        require(newFI.isValid == false);\r\n\r\n        newFI.isValid = true;\r\n        newFI.name = name;\r\n        newFI.addr = addr;\r\n        newFI.phone = phone;\r\n\r\n        emit FIRequestVote(msg.sender, name, addr, phone);\r\n    }\r\n\r\n    function getFIApplicationDetails(address target) public view returns(string memory, string memory, string memory) {\r\n        FIRequest storage newFI = FIRequests[target];\r\n        require(newFI.isValid == true);\r\n\r\n        return (newFI.name, newFI.addr, newFI.phone);\r\n    }\r\n\r\n    function voteFIApplication(address target) public isFinancialInstitution {\r\n        FIRequest storage newFI = FIRequests[target];\r\n        require(newFI.isValid == true);\r\n        require(newFI.approvers[msg.sender] == false);\r\n\r\n        newFI.approvers[msg.sender] = true;\r\n        newFI.approvals += 1;\r\n\r\n        if (newFI.approvals >= FIVotingThreshold) {\r\n            newFI.isValid = false;\r\n            \r\n            FinancialInstitution storage approvedFI = financialInstitutions[target];\r\n            approvedFI.name = newFI.name;\r\n            approvedFI.addr = newFI.addr;\r\n            approvedFI.phone = newFI.phone;\r\n            approvedFI.isValid = true;\r\n            approvedFI.isConsortium = false;\r\n\r\n            emit NewFI(target);\r\n        }\r\n    }\r\n\r\n    function startConsortiumApplication() public isFinancialInstitution{\r\n        ConsortiumRequest storage newConsortium = consortiumRequests[msg.sender];\r\n        require(newConsortium.isValid == false);\r\n\r\n        newConsortium.isValid = true;\r\n\r\n        emit ConsortiumMemberRequestVote(msg.sender);\r\n    }\r\n\r\n    function voteConsortiumApplication(address target) public isConsortium {\r\n        ConsortiumRequest storage newConsortium = consortiumRequests[target];\r\n        require(newConsortium.isValid == true);\r\n        require(newConsortium.approvers[msg.sender] == false);\r\n\r\n        newConsortium.approvers[msg.sender] = true;\r\n        newConsortium.approvals += 1;\r\n\r\n        if (newConsortium.approvals == consortiumAccs) { // unanimous voting\r\n            newConsortium.isValid = false;\r\n            \r\n            FinancialInstitution storage approved = financialInstitutions[target];\r\n            approved.isConsortium = true;\r\n            consortiumAccs += 1; \r\n\r\n            emit NewConsortiumMember(target);\r\n        }\r\n    }\r\n}\r\n",
  "sourcePath": "D:/Projects/RHB_Backathon/truffle/contracts/RHBChain.sol",
  "compiler": {
    "name": "solc",
    "version": "0.5.16+commit.9c3226ce.Emscripten.clang"
  },
  "schemaVersion": "3.4.1",
  "updatedAt": "2021-06-13T03:42:00.180Z",
  "networkType": "ethereum",
  "devdoc": {
    "methods": {}
  },
  "userdoc": {
    "methods": {}
  }
}